:04000000D0EF0AF043
:1000080000C01AF001C019F002C018F003C017F0C0
:1000180004C016F005C015F0E1CF21F0E2CF22F0C0
:10002800E9CF1FF0EACF20F0F5CF1EF0F8CF1BF094
:10003800F7CF1CF0F6CF1DF042EC0AF01EC0F5FF1A
:100048001BC0F8FF1CC0F7FF1DC0F6FF1AC000F068
:1000580019C001F018C002F017C003F016C004F070
:1000680015C005F01FC0E9FF20C0EAFF21C0E1FF6D
:0600780022C0E2FF1100AE
:10007E00000E056E040E066E7DC003F0000E046EBB
:10008E000336043603900336043603907EC000F028
:10009E00000E016E0036013600900050032601500E
:1000AE00042203C001F004C002F0013601900236B2
:1000BE0001360190023601C003F002C004F0043292
:1000CE000332049E04BC048E04320332049E04BC2C
:1000DE00048E03C000F004C001F00036009001361B
:1000EE00003600900136055000260650012200C051
:1000FE0005F001C006F000C0E1FF01C0E2FFE69E80
:10010E0000017E51000A12E17DC000F0000E016E6A
:10011E00003600900136560E0024E16E000E0120CE
:10012E00E26E05C0E6FF06C0E6FF11D07DC000F00E
:10013E00000E016E003600900136470E0024E16E6F
:10014E00000E0120E26E05C0E6FF06C0E6FF05C008
:10015E00E1FF06C0E2FFE69C040E0524E16E000EF0
:08016E000620E26EE68C12008F
:0E017600800E00017D11006E00C050F01200DE
:100184007DC04DF07EC04EF07FC051F080C052F073
:10019400800E00018111006E008000C050F012003A
:1001A4007DC04DF07EC04EF07FC04FF080C051F056
:1001B40081C052F0800E00018211006E00C050F028
:0201C400120027
:1001C60020C401F01F0E01160150010A01E08BD078
:1001D60004012451000A01E086D02151060A38E1C3
:1001E6002DD04150010A13E11A0E00017D6F160E43
:1001F6007E6F000E7F6F120E7D27000E7E237F23FB
:10020600090E806F000E816F400E826FC8DF20D00E
:100216004150010A0EE10001690E7D6F160E7E6FD8
:10022600000E7F6F210E806F000E816F400E826F71
:10023600B6DF0ED000017D6B9BDF0AD0040123518F
:10024600210ACFE02351220AE3E02351230AF2E0F8
:1002560020C401F0600E0116050E006E005004E089
:100266000132019EFF0FFBD70150010A01E03BD08E
:1002760027D039D038D0330E00017D6F000E7E6F47
:10028600010E7F6F000E806F400E816F78DF2BD0DE
:1002960000017D6B6DDF23C433F025D000012E0EE7
:1002A6007D6F000E7E6F010E7F6F000E806F816B7B
:1002B60066DF19D000017D6B5BDF22C42EF013D000
:1002C60004012151010AD5E02151090AD3E0215147
:1002D600020AD1E021510A0ADBE02151030ADEE0DD
:0802E60021510B0AE7E01200B0
:1002EE00700EE16E0F0EE26E00017851E126D8B06D
:1002FE00E22A79C0E6FF79A504D078C07DF07E6B46
:10030E00B7DE79A305D078C07DF0010E7E6FB0DE2A
:02031E001200CB
:1003200000017951000A12E078C000F0000E016E61
:10033000003600900136470E0024E96E000E0120C1
:10034000EA6EEECF04F0EECF05F011D078C000F0E9
:10035000000E016E003600900136560E0024E96E44
:10036000000E0120EA6EEECF04F0EECF05F0020E93
:100370000424E16E000E0520E26E7AC0E6FF7BC029
:10038000E6FF010E0424E16E000E0520E26E7CC043
:10039000E6FF04C0E9FF05C0EAFFEECF00F004C0AD
:1003A000E1FF05C0E2FF400E0014E66E04C0E9FF65
:1003B00005C0EAFFEECF00F004C0E1FF05C0E2FF98
:1003C000880E0010E66E7951000A1BE078C000F03C
:1003D000000E016E003600900136470E0024026EBA
:1003E000000E0120036E02C0E9FF03C0EAFF040E05
:1003F000EE18006E02C0E1FF03C0E2FF00C0E6FF9E
:100400001AD078C000F0000E016E00360090013660
:10041000560E0024026E000E0120036E02C0E9FF9A
:1004200003C0EAFF040EEE18006E02C0E1FF03C035
:10043000E2FF00C0E6FF04C000F005C001F01200BA
:10044000425215E0010E0001786F1E0E796F4FDFEA
:10045000010E786F796B3FC07AF040C07BF0400EA0
:100460007C6F5EDF00C04BF001C04CF014D0000187
:10047000010E786F1E0E796F3ADF010E786F796B7F
:100480003FC07AF040C07BF0400E7C6F49DF00C077
:080490004BF001C04CF012001A
:08049800425201E094DE120063
:1004A00072C002F073C003F075C000F076C001F0B6
:1004B000010E0001755F000E765B0050011009E02F
:1004C00002C0E1FF03C0E2FF74C0E6FF024A032A54
:0404D000EBD7120054
:1004D4000CD0B4DF3CD03BD0DDDF39D038D037D0BE
:1004E40036D035D0000033D032D0000E000173195D
:1004F40002E1010E7219EDE0000E731902E1020E21
:100504007219E9E0000E731902E1030E7219E4E0B6
:100514007351000A02E1730E7219E0E07351000A8C
:1005240002E1750E7219DBE07351000A02E1740EE8
:100534007219D6E073513F0A02E1FF0E7219D1E03D
:100544007351000A02E1720E7219CCE0CDD7010E8C
:04055400006E120023
:100558000B6A0A6A096A00500402F4CF09F0F3CF63
:1005680008F001500502F4CF0BF0F3CF0AF0005069
:100578000502F3500926F4500A22E86A0B220150BA
:100588000402F3500926F4500A22E86A0B2208C034
:1005980000F009C001F00AC002F00BC003F012001D
:1005A800F250026EF29E0500FF6A0150FE6E005086
:0805B800FD6E02BEF28E12007E
:1005C00004012051800AD8A471D0C00E506E64D0AE
:1005D0008A0E006E160E016E000E026E00C04DF007
:1005E00001C04EF002C04FF0120E516E000E526E5E
:1005F0005DD0030E006E000E016E22C404F0000EEA
:10060000056EAADF430E0024E96E000E0120EA6E9B
:10061000EECF4DF0EECF4EF0EECF4FF0020E4D2468
:10062000F66E000E4E20F76E000E4F20F86E090099
:10063000F5CF00F00900F5CF01F000C051F001C086
:1006400052F034D0030E225D23E2030E006E000E42
:10065000016E22C404F0000E056E7EDF340E00240D
:10066000E96E000E0120EA6EEECF4DF0EECF4EF0B7
:10067000EECF4FF04DC0F6FF4EC0F7FF4FC0F8FF72
:100680000900F5CF00F000C051F0000E526E01D00D
:10069000506A0CD0506A0AD02351010A99E02351C4
:0E06A000020AA7E02351030ACDE0F4D71200AE
:1006AE00508E710E0001726F0F0E736F746B010E10
:1006BE00756F000E766FEDDE530E726F000E736F58
:1006CE00746B010E756F000E766FE3DE22C441F07F
:1006DE004150000A03E1100E5A6E0FD0200E5A6ED2
:1006EE00010E726F000E736F410E746F000E756FF8
:0C06FE00010E766F000E776FE6DE120032
:10070A00000E525C02E1080E515C10E251C003F087
:10071A0052C004F04650000A03E1010E466E05D0AD
:10072A004650010A02E1020E466E04D0080E036E1C
:10073A00000E046E47C0E1FF48C0E2FFE69247C0E0
:10074A00E1FF48C0E2FFE69047C0E9FF48C0EAFF80
:10075A00EECF00F047C0E1FF48C0E2FF04500010AE
:10076A00E66E010E4724E16E000E4820E26E03C0D9
:10077A00E6FF0350515C006E04505258016E00C0EF
:10078A0051F001C052F0280E5C6E040E5D6E50B03E
:10079A002FD0035004102BE04DC0F6FF4EC0F7FFD8
:1007AA004FC0F8FF0900F5CF00F05CC0E1FF5DC063
:1007BA00E2FF00C0E6FF5C4A5D2A010E4D24006E8E
:1007CA00000E4E20016E000E4F20026E00C04DF04A
:1007DA0001C04EF002C04FF0010E035C006E000E25
:1007EA000458016E00C003F001C004F0D2D724D02F
:1007FA000350041021E04DC0E9FF4EC0EAFF5CC07F
:10080A00E1FF5DC0E2FFEECFE6FF5C4A5D2A010E22
:10081A004D24006E000E4E20016E00C04DF001C046
:10082A004EF0010E035C006E000E0458016E00C00B
:0A083A0003F001C004F0DCD7120047
:1008440004012251010A0FE120C401F01F0E011618
:100854000150000A08E1508E2151030A03E1010E00
:100864005B6E01D05B6A2251000AD8A489D020C4EF
:1008740001F01F0E01160150020AD8A481D024C42D
:1008840001F00F0E01160150000AD8B479D0508E31
:1008940024BF16D024C403F00F0E031603C000F0C7
:1008A400000E016E003600900136560E0024E96EEB
:1008B400000E0120EA6EEECF04F0EECF05F015D065
:1008C40024C403F00F0E031603C000F0000E016EE3
:1008D400003600900136470E0024E96E000E012018
:1008E400EA6EEECF04F0EECF05F02151030A07E1E2
:1008F40004C0E1FF05C0E2FF840EE66E41D024C4CB
:1009040000F00F0E0016700E026E0F0E036E0050F4
:100914000226D8B0032A02C0E9FF03C0EAFFEECFE3
:1009240000F0EECF01F0009002C0E1FF03C0E2FF4F
:1009340000C0E6FF01C0E6FF24AF11D004C0E1FF10
:1009440005C0E2FFE66A040E0418006E00C004F05D
:1009540004C0E1FF05C0E2FF400EE66E11D004C002
:10096400E1FF05C0E2FF880EE66E040E0418006E77
:1009740000C004F004C0E1FF05C0E2FFC80EE66E4B
:0209840012005F
:100986000401286B296B42D0508E28815B50010AE6
:10099600D8B4288350D0508E4ED0508E24BF16D057
:1009A60024C403F00F0E031603C000F0000E016E00
:1009B600003600900136560E0024E96E000E012026
:1009C600EA6EEECF04F0EECF05F015D024C403F0A6
:1009D6000F0E031603C000F0000E016E00360090E5
:1009E6000136470E0024E96E000E0120EA6EEECFB6
:1009F60004F0EECF05F004C0E9FF05C0EAFFEECF34
:100A060001F001A402D0010E286F15D020C401F018
:100A16001F0E01160150000AB7E020C401F01F0E98
:100A260001160150010AB7E020C401F01F0E01169D
:100A36000150020AB2E050AE07D0280E4D6E040EE9
:0A0A46004E6E5080020E516E120039
:100A5000306A47C0E1FF48C0E2FFE66A040E47186B
:100A6000E16E48C0E2FF000EE21AE66A25AE13D03E
:100A7000000E006E2B1808E100502A1805E1005006
:100A8000291802E12850000A05E028C000F029C01A
:080A900001F08ADD259E120031
:100A9800010E2C24E96E000E2D20EA6EEECF00F038
:100AA80000C070F0000E275C03E100017051265C65
:100AB80003E226C070F00BD000017051265C006E76
:100AC800000E2758016E00C026F001C027F0000173
:100AD800716B7051715D1CE2280EE96E040EEA6EAE
:100AE8007151E926D8B0EA2AEECF00F023C0E1FF21
:100AF80024C0E2FF00C0E6FF010E2324006E000EB2
:100B08002420016E00C023F001C024F0712BE1D72E
:100B1800000E006E2750005C02E12650000828E213
:100B2800010E3124E16E000E3220E26E080EE66EF0
:100B3800020E3124E16E000E3220E26E280EE66EBF
:100B4800040EE66E2CC0E9FF2DC0EAFFEECF00F0E0
:100B580000BC07D031C0E1FF32C0E2FFC80EE66E2C
:100B680006D031C0E1FF32C0E2FF880EE66E2BD01E
:100B7800010E3124E16E000E3220E26E080EE66EA0
:100B8800020E3124E16E000E3220E26E200EE66E77
:100B9800040EE66E31C0E1FF32C0E2FF840EE66E5D
:100BA800000E006E2B1808E100502A1805E10050CD
:100BB800291802E12850000A05E028C000F029C0E1
:080BC80001F0EEDC259E120095
:100BD00020C401F0600E0116050E006E005004E006
:100BE0000132019EFF0FFBD70150000A01E062D0E5
:100BF0003ED0508E080E5A6E5DD0E2DC5BD057DDE1
:100C000059D0410E4D6E000E4E6E5080010E516E49
:100C1000508E50D0B8DE4ED015DE4CD0530E006E44
:100C2000000E016E24510026D8B0012A00C04DF0FC
:100C300001C04EF05080010E516E508E3BD0508E50
:100C4000530EE16E000EE26E2451E126D8B0E22A86
:100C500022C4E6FF2FD0020E0001726F000E736FE8
:100C6000746B756B766B776B35DC24D023D0040105
:100C70002151050ABEE02151060ABFE02151090AAF
:100C8000BEE02151080ABDE02151000AC3E0215114
:100C9000010AC2E02151030ABFE021510A0ABEE065
:100CA00021510B0ACCE02151070AD5E021510C0A51
:060CB000DDE0DCD71200BC
:100CB6006D9850BE49D025AE28D0020E306E010E7A
:100CC6004724E16E000E4820E26EE66A47C0E1FF67
:100CD60048C0E2FFC80EE66E010E3124E16E000E3A
:100CE6003220E26E080EE66E020E3124E16E000E30
:100CF6003220E26E280EE66E040EE66E31C0E1FF8B
:100D060032C0E2FFC80EE66E1ED0010E3124E16E3F
:100D1600000E3220E26E080EE66E020E3124E16EFF
:100D2600000E3220E26E200EE66E040EE66E31C034
:100D3600E1FF32C0E2FF8C0EE66E47C0E1FF48C01D
:100D4600E2FF840EE66E7DD025BE7BD0040120AF87
:100D560051D05250275D02E15150265D04E226C46F
:100D660051F027C452F0CEDC010E306E010E312454
:100D7600E16E000E3220E26E080EE66E020E31249F
:100D8600E16E000E3220E26E200EE66E040EE66E76
:100D960031C0E1FF32C0E2FF800EE66E2F6A010E1F
:100DA6002C24E16E000E2D20E26E080EE66E020E79
:100DB6002C24E16E000E2D20E26E200EE66E040E4F
:100DC600E66E2CC0E1FF2DC0E2FF840EE66E010E3A
:100DD6002F6E020E4724E16E000E4820E26E280EAA
:100DE600E66E040EE66E47C0E1FF48C0E2FFC80E9D
:100DF600E66E27D0020E306E010E4724E16E000E1D
:100E06004820E26EE66A47C0E1FF48C0E2FFC80E2E
:100E1600E66E010E3124E16E000E3220E26E080EFF
:100E2600E66E020E3124E16E000E3220E26E280ECE
:100E3600E66E040EE66E31C0E1FF32C0E2FFC80E78
:040E4600E66E120042
:100E4A0000016A51000A12E069C000F0000E016E4A
:100E5A00003600900136470E0024E96E000E01208C
:100E6A00EA6EEECF04F0EECF05F011D069C000F0C3
:100E7A00000E016E003600900136560E0024E96E0F
:100E8A00000E0120EA6EEECF04F0EECF05F0020E5E
:100E9A000424E16E000E0520E26E6BC0E6FF6CC012
:100EAA00E6FF010E0424E16E000E0520E26E6DC01D
:100EBA00E6FF04C0E9FF05C0EAFFEECF00F004C078
:100ECA00E1FF05C0E2FF400E0014E66E04C0E9FF30
:100EDA0005C0EAFFEECF00F004C0E1FF05C0E2FF63
:100EEA00880E0010E66E6A51000A1BE069C000F025
:100EFA00000E016E003600900136470E0024026E85
:100F0A00000E0120036E02C0E9FF03C0EAFF040ECF
:100F1A00EE18006E02C0E1FF03C0E2FF00C0E6FF68
:100F2A001AD069C000F0000E016E0036009001363A
:100F3A00560E0024026E000E0120036E02C0E9FF65
:100F4A0003C0EAFF040EEE18006E02C0E1FF03C000
:100F5A00E2FF00C0E6FF04C000F005C001F0120085
:100F6A00000E00016A1902E1000E691902E1016A24
:100F7A0009D069C0E9FF6AC0EAFFEECF00F0016A52
:0A0F8A0000BE012A01C000F01200B1
:0E0F9400160E6F6E9F0E6B6E7B0E696E120056
:100FA2001A0E436E160E446E000E456E9C0E346E83
:100FB200160E356E000E366E430E376E160E386EF6
:100FC200000E396ED40E3A6E150E3B6E000E3C6E5C
:020FD20012000B
:0A0FD400D08EA28AA08AF28E1200CD
:100FDE0069C002F06AC003F06CC000F06DC001F091
:100FEE00010E00016C5F000E6D5B0050011009E0F8
:100FFE0002C0E1FF03C0E2FF6BC0E6FF024A032A14
:04100E00EBD712000A
:1010120047C0E9FF48C0EAFFEECF00F000AE05D0BE
:1010220047C0E1FF48C0E2FFE66A466A306A516A99
:10103200526A506ACCDD030E0001726F000E736FAC
:10104200746B756B766B776B6AEC02F033DE1200B1
:1010520047C0E9FF48C0EAFFEECF00F0000E00BC37
:10106200010E00016F6F040E4718006E00C047F0BA
:101072005A50080A0AE122C46EFF6E50000803E2C9
:10108200100E5A6E02D0040E5A6E3050010A2CE134
:10109200020E4724E16E000E4820E26E280E006E1A
:1010A200040E016E00C0E6FF01C0E6FF85EC03F00E
:1010B2004650020A07E147C0E1FF48C0E2FF840E42
:1010C200E66E11D000016F51000A07E147C0E1FF4F
:1010D20048C0E2FFC80EE66E06D047C0E1FF48C036
:0C10E200E2FF880EE66E01D0B2DC1200C6
:1010EE003050020A02E1D1DC1ED0ABDC2F50000AD8
:1010FE0019E1010E3124E16E000E3220E26E080E6F
:10110E00E66E020E3124E16E000E3220E26E200EEB
:10111E00E66E040EE66E31C0E1FF32C0E2FF8C0EC9
:08112E00E66E01D02F6A1200E9
:1011360035DF4B6A4C6A546A556A6A6A686A27DF01
:101146006D8C6E6A710E0001726F0F0E736F746B89
:10115600010E756F000E766F50EC02F06D9C6E6B93
:10116600080E6E5D16E26EC000F0000E016E0036CF
:1011760000900136003600900136000E0024E16E24
:10118600040E0120E26EE66AE66AE66AE66A6E2BFD
:10119600E7D7160E706E68A603D0F70E6816FBD753
:1011A600506A256A266A276A6D98080E476E040EED
:0811B600486E416A5A6A1200FA
:1011BE00740E0001726F000E736F746B756B766B2D
:1011CE00776B6AEC02F06D92699468A403D0FB0E03
:0611DE006816FBD71200A9
:1011E400200E5A5C03E36DB201D002D0006A23D012
:1011F4004BC069F04CC06AF0B6DE00521BE1010E30
:101204004B24E96E000E4C20EA6EEECF00F000C0D5
:101214005FF068C069F06A6B65C06BF066C06CF023
:1012240067C06DF010DE00C04BF001C04CF05FC031
:0812340000F001D0006A120075
:10123C00B2DE4B6A4C6A546A556A6A6A686AA4DE02
:10124C006D8C6E6A710E0001696F0F0E6A6F6B6B9D
:10125C00010E6C6F000E6D6FBCDE6D9C5F6A080E2C
:10126C005F5C16E25FC000F0000E016E003600906D
:10127C000136003600900136000E0024E16E040E9B
:10128C000120E26EE66AE66AE66AE66A5F2AE7D75A
:10129C00160E706E68A603D0F70E6816FBD7506A50
:1012AC00256A266A276A6D98080E476E040E486EEA
:0612BC00416A5A6A1200AB
:1012C2005A50000A0AE16D6A696A63DE82DE6DB60F
:0C12D20002D06D86FCD7010E5A6E12008F
:1012DE0070A019D02CC0E9FF2DC0EAFFEECF01F0AF
:1012EE000150800A0FE147C0E9FF48C0EAFFEECF88
:1012FE0001F00150840A06E12CC0E1FF2DC0E2FF8F
:0C130E008C0EE66E7090DF0E6816120068
:10131A006984EF0E68166D82750E0001726F000EF9
:10132A00736F746B756B766B776B6AEC02F01200F5
:04133A00A19A120062
:10133E00FD0E5E14016E026AFF0E0216000E0218FA
:10134E0002E1000E01186CE17E0E5E14016E01C00A
:10135E0003F00332039E03C000F0000E016E003650
:10136E0000900136003600900136000E0024026E09
:10137E00040E0120036E02C02CF003C02DF002C03B
:10138E0031F003C032F0040E3118006E00C031F09F
:10139E0002C0E9FF03C0EAFFEECF00F000C001F08B
:1013AE003C0E01160132019E0132019E01500D0AC2
:1013BE0035E1020E2C24E96E000E2D20EA6EEECFE2
:1013CE0001F0EECF02F00250040A02E1280E0118DD
:1013DE0023E1020E2C24E16E000E2D20E26E200E73
:1013EE00E66E040EE66E00016E6B080E6E5D14E284
:1013FE00200EE16E040EE26E6E51E126D8B0E22AA6
:10140E00280EE96E040EEA6E6E51E926D8B0EA2A6D
:10141E00EECFE6FF6E2BE9D7F5DD01D061DE0DD004
:10142E00FD0E5E14016E026AFF0E0216000E021809
:0C143E0002E1040E011801E105DE1200BD
:10144A00010E426E61C03FF062C040F063C03DF0E1
:10145A0064C03EF0EEDE010E016E0150010A01E1A8
:04146A002BDF120062
:10146E003FC065F040C066F0400E0001676F010E90
:06147E00686FB1DE1200F0
:101484005A50010A07E16DBA05D0686A6980698813
:10149400020E5A6E68A405D069A403D0FB0E681628
:1014A4008CDE6DA202D047DF78D068A018D069A086
:1014B40016D03FDE040E5A6E200E0401026F040E95
:1014C400036F080E016F000E0015006E00C000F4DB
:1014D4008C0E0011006E00C000F4FE0E681668A8A1
:1014E40005D069A803D017DFEF0E681668AC11D0D9
:1014F40069AC0FD0730E0001726F000E736F746BC2
:10150400756B010E766F000E776F6AEC02F0BF0EFA
:10151400681668AA03D069AA01D0DFDE68A210D0D9
:1015240069A20ED0FF0E0001726F3F0E736F746BD1
:10153400756B010E766F000E776F6AEC02F06A6AC3
:10154400040E5A5C02E2F7DE28D069A625D0000119
:10155400606B040E605D20E268A61AD06CCF5EF06A
:10156400F70E6816780E5E14016E0150000A02E14F
:10157400E4DE0DD0720E0001726F000E736F5E0E0A
:10158400746F000E756F766B776B6AEC02F001D0A6
:0C15940003D00001602BDDD7CEDE12007A
:1015A0000F0EC112070EB412936A816A946A000E7C
:1015B0000001616F050E626F400E636F050E646F70
:1015C00044DF828E54DF005201E1FCD701C581FF68
:0415D000F9D7FFD771
:1015D40046034B00690064006F0067006F00200041
:1015E4005500530042002000440069006700690070
:1015F400740061006C0020005300690067006E00F5
:1016040061006C00200049006E006A006500630000
:0616140074006F0072007B
:10161A000902290001010080640904000002030094
:10162A000000092101010001222100070581034070
:09163A0000010705010340000155
:101643002603440069006C007300680061006E00AB
:101653002000520020004A006100790061006B0005
:061663006F006400790035
:101669000600FF0901A10119012940150026FF0003
:1016790075089502810219012940750895029102A0
:01168900C0A0
:10168A00120100020000000884192006010001026C
:02169A0000014D
:04169C000403090436
:020000040030CA
:0E000000240E391EFF8181FF0FC00FE00F405C
:00000001FF
